:020000040800F2
:100000000050002009050008070500080505000844
:1000100005050008050500080505000800000000AA
:1000200000000000000000000000000007050008BC
:100030000705000800000000070500080705000884
:100040000505000805050008050500080505000868
:100050000505000805050008050500080505000858
:100060000505000805050008050500080505000848
:100070000505000805050008050500080505000838
:100080000505000805050008050500080505000828
:100090000505000805050008050500080505000818
:1000A0000505000805050008050500080505000808
:1000B00005050008050500080505000805050008F8
:1000C00005050008050500080505000805050008E8
:1000D00005050008050500080505000805050008D8
:1000E00005050008050500080505000805050008C8
:1000F00005050008050500080505000805050008B8
:1001000005050008050500080505000805050008A7
:100110000505000805050008050500080505000897
:100120000505000805050008050500080505000887
:100130000505000805050008050500080505000877
:100140000505000805050008050500080505000867
:1001500008B500F023FA00BF00BF00BF00F036FA78
:10016000B0FA80F0400908BD37B5019000F02EFAD2
:10017000074A054614684FF47A72B4FBF2F4019B07
:100180005C4300F023FA431BA342FAD303B030BD13
:100190000000002008B50D4800F048F94FF4417008
:1001A00000F0A2F9FFF7D4FF4FF400530022012121
:1001B000074800F00FF8064C4FF47A70FFF7D4FFB1
:1001C0004FF40051204600F034F8F5E764060008CB
:1001D000001001402DE9F04100264FF00F0E9C4623
:1001E000036847684CFA06F4E4071BD5072E94BF52
:1001F0009846B846B4B24FEA84048ABF203CA4B201
:10020000A4B20EFA04F528EA0508A51CADB202FA5C
:1002100005F501FA04F42C4344EA0804072E94BFC0
:10022000234627460136102EDCD103604760BDE827
:10023000F081C36801EA030221EA030141EA0241B5
:1002400001617047062824D8DFE800F004090E1386
:10025000181D2000104B1868C0F3406070470E4B0B
:100260001868C0F3C06070470B4B1868C0F340704B
:100270007047094B1868C0F340407047064B186838
:10028000C0F340007047044B186AF9E7024B586A04
:10029000F6E70020704700BF00100240024608B594
:1002A0001046FFF7CFFF0028FAD008BD06282AD84D
:1002B000DFE800F0040A0F14191E2400124A136824
:1002C00043F08073136070470F4A136843F08063F4
:1002D000F8E70D4A136843F08053F3E70A4A1368BE
:1002E00043F48033EEE7084A136843F00103E9E77B
:1002F000054A136A43F0010313627047024A536AC6
:1003000043F001035362704700100240034A5368F0
:1003100023F0030303435360704700BF0010024003
:10032000034A536823F4701343EA804353607047D1
:1003300000100240034AD36A23F4706343EA0023A7
:10034000D362704700100240034AD36A23F470431B
:1003500043EA0033D362704700100240034A5368F7
:1003600023F4803343EA0043536070470010024097
:10037000034A536823F4003343EA40435360704711
:1003800000100240034A536823F4404343EA803399
:100390005360704700100240034A536823F46053CF
:1003A00043EAC0235360704700100240034A536879
:1003B00023F4E06343EA00235360704700100240D7
:1003C000034A536823F0F00343EA00135360704775
:1003D00000100240044B5A6818B142F480025A607F
:1003E000704722F48002FAE700100240034AD36A01
:1003F00023F00F030343D362704700BF0010024095
:10040000034AD36A23F0F00343EA0013D362704730
:1004100000100240044BDA6A18B142F48032DA620A
:10042000704722F48032FAE70010024010B504460B
:100430004378012B0CBF03200420FFF737FFFFF7A1
:100440002DFFA078FFF7BCFFE078FFF7AFFF207922
:10045000FFF7A2FF6079FFF795FF207BFFF7BAFF58
:10046000A07900F0BDF82078FFF75AFF6078FFF719
:1004700075FFE07901282DD9FFF7B8FF207A08B180
:10048000FFF7C8FF607A08B1FFF7BAFFA07A30B172
:10049000FFF750FF0120FFF709FFFFF7FFFEE07AAB
:1004A00030B1FFF751FF0220FFF700FFFFF7F6FE24
:1004B0000020FFF7FBFEFFF7F1FE0220FFF726FF0B
:1004C0002269064B1A606269054B1A60A269054BE6
:1004D0001A6010BDFFF74CFFD0E700BF00000020FE
:1004E00004000020080000200122430903F180439A
:1004F00003F50433196800F01F0002FA00F0084306
:1005000018607047FEE7704738B51A4A1A4B1B4906
:100510008B421AD300211A4A93421BD34FF0E02298
:10052000D2F8143D174C43F40073174DC2F8143D34
:10053000AC4212D3154C164DAC4212D3FFF72AFE33
:10054000144C154DAC4210D338BD52F8040B43F88F
:10055000040BDDE743F8041BDEE754F8043B98473F
:10056000E6E754F8043B9847E6E754F8043B98471D
:10057000E8E700BF80060008000000200C00002013
:100580000C00002080060008800600088006000895
:100590008006000880060008800600084FF0E02270
:1005A000D2F8FC3D43F08073C2F8FC3D064B1A685C
:1005B00012F0007201BF5A601A68012042F0010275
:1005C00014BF00201A607047001000E0034B186849
:1005D00010F0010018BF5868704700BF001000E01D
:1005E000034A136823F0070303431360704700BFF7
:1005F000002002400401000400020200000000008C
:100600000000000000A24A040051250200A24A0492
:1006100007010004000202010000000000000000C9
:1006200000A24A040051250200A24A040701000466
:1006300000020204010406000000000000A24A04B7
:100640000051250200A24A04010100000000000040
:10065000000000000000000000366E0100366E0150
:1006600000366E01070100040003020000000000D4
:100670000000000000A24A040051250200A24A0422
:0C06800000127A0000127A0000127A00CA
:0400000508000509E1
:00000001FF
